:020B99000B311E
:020B9B000A85C9
:020B9D0007BF90
:020B9F00071A33
:020BA10008D773
:020BA30009A0A7
:0B0BA500EF1FAC0670011E4C70F62222
:040B4F00AB07AA0640
:100B5300900000C3E5829BE5839A500A7F0A7E00DA
:060B6300120BA5A380EDBA
:010B69002269
:100AF100E4FDFCC3ED9FEC9E5015E4FBFA0BBB003B
:0F0B0100010AEB647B4A70F50DBD00010C80E426
:010B100022C2
:100B6A00C290C291C2928FA07F017E00120AF1D276
:0B0B7A00927F017E00120AF1C292225D
:060AD00014F91202F1FF0F
:100AD600D290C291C2928FA07F017E00120AF1D2FB
:0B0AE600927F017E00120AF1C29222F2
:100B85007F38120B6A7F0C120B6A7F06120B6A7F85
:040B950001020B6AE4
:050003007F01020B6A01
:080662008F3F8B408A41894261
:10066A00E4F543F544EDD394014003020719E53F4D
:10067A00940F4003020719ED704CAB40AA41A942FE
:10068A001202F17003020719C37410953FFFE49434
:10069A0000FEC3E5449FE5439E5008E544248025B7
:1006AA003F8006E53F254424B0FF120B6AAB4005A4
:1006BA0042E542AA4170020541120AD00544E544C6
:1006CA0070B8054380B4AB40AA41A9421202F16056
:1006DA003EC37410953FFFE49400FEC3E5449FE5D2
:1006EA00439E5008E54424C0253F8006E53F254443
:1006FA002470FF120B6AAB400542E542AA41700220
:0F070A000541120AD00544E54470BB054380B792
:0107190022BD
:100B1100C28CD2937F047E00120BA5C2937F647EA8
:100B210000120BA5D2937F287E00120BA5D28C2236
:100A5900E4F52EC28CF52DC293E52EC313F52ED2E3
:100A690093309303432E807F0A7E00120BA5052D38
:0B0A7900E52DC3940840E0D28CAF2EA6
:010A8400224F
:070A290075830012030AFFB0
:020A30008F2D08
:100A3200C28CE4F52EC293E52D1392937F0A7E00B9
:100A4200120BA5D293E52DC313F52D052EE52EC36A
:060A5200940840E1D28C83
:010A5800227B
:0605A6008B218A2289234B
:1005AC00120B117F55120A30E4F52BAB21AA22A9AC
:1005BC0023852B82120A29052BE52BC3940840EBCB
:1005CC007F44120A30120B117F55120A30E4F52CBD
:1005DC00AB21AA22A923852C82120A29052CE52CF1
:1005EC00C3940840EB7FBE120A30120A598F2412B2
:1005FC000A59EFFEE524FFEE3395E08F2A8E29F59C
:10060C0028F527AF2AFDAC27E47B717A02F9F812A2
:10061C0003AE8F2A8E298D288C27EC33E52A4011C6
:10062C0024F4FFE5293401FEE43528FDE435278068
:10063C0011240CFFE52934FEFEE52834FFFDE527E7
:10064C0034FFFCE47BE87A03F9F81209E58E258F78
:05065C0026AE25AF26CB
:010661002276
:0A0BB0005265663A004672653A008D
:100AAD0008502830C5B82200005508582830C5B860
:100ABD00330000B4024C0028024EFF4CC101C100AE
:0604CB007B007A00792F8E
:0604D1008B3F8A408941C7
:1004D700E4FBF543C3EE64809480500C0BC3E49FA8
:1004E700F545E49EF54480048E448F45AE44AF4500
:1004F7007C007D0A1203598F42AE44AF457C007DD4
:100507000A120359AF05EBAB3FAA40A941AE4360BE
:100517000B05438E82758300742D800905438E82F7
:100527007583007420120337E542C3940A4019E526
:100537004275F00A842430AB3FAA40A941AD430578
:10054700438D827583008011AB3FAA40A941AE431A
:1005570005438E827583007420120337E54275F0D8
:100567000A84E5F02430AD4305438D82758300127C
:100577000337AB3FAA40A941AE4305438E8275833B
:1005870000742E120337EF2430AE4305438E827575
:0F0597008300120337854382758300E402033724
:100B31007F0112000E7F0212000E7F0312000E7F52
:0E0B41000412000E7F0512000EE4FF02009762
:100A85007B007A0079501205A68E488F497B007A43
:100A95000079581205A68E4A8F4BD201E4FBFA7DE8
:080AA500647F0212012080D8D9
:1007BF00120B851200037BFF7A0B79B0E4FDFF1259
:1007CF0006627BFF7A0B79B57D01E4FF120662307A
:1007DF00015EAF49AE481204CB7B007A00792FE45B
:1007EF00FD7F04120662AF4DAE4C1204CB7B007A34
:1007FF0000792FE4FD7F0B1206627B007A00792FC0
:10080F00AF4BAE4A1204D17B007A00792F7D017F66
:10081F00041206627B007A00792FAF4FAE4E12049E
:10082F00D17B007A00792F7D017F0B120662C20106
:0C083F00E4FBFA7D327F0212012080935E
:10071A00C202C203C294C29530000BC294C295C2EF
:10072A0002C2030207B220021EE54D2405FFE4358A
:10073A004CFED3E5499FEE6480F8E5486480984012
:10074A0006D202D294802030021DE54D24FBFFE53B
:10075A004C34FFFEC3E5499FEE6480F8E5486480A7
:10076A00985004C202C29420031EE54F2405FFE4F8
:10077A00354EFED3E54B9FEE6480F8E54A648098D7
:10078A004006D203D295802030031DE54F24FBFF9B
:10079A00E54E34FFFEC3E54B9FEE6480F8E54A64FC
:1007AA0080985004C203C295E4FBFA7D147F0212BA
:0507BA000120020722EE
:1008D7007F0112095AEF24FE602314603914604F18
:1008E70024037062C3E54D9464E54C6480948050A2
:1008F70055054DE54D7002054CD2018049D3E54DB4
:100907009400E54C64809480403CE54D154D7002A1
:10091700154CD2018030C3E54F94B0E54E64809406
:100927007F5023054FE54F7002054ED2018017D344
:10093700E54F9424E54E6480947F400AE54F154FB8
:100947007002154ED201E4FBFA7D017F02120120ED
:030957000208D7BC
:1009A000E4F546F547C2963084240547E5477002D2
:1009B0000546D39458E54694024004D285D296D396
:1009C000E5479470E5469417400FD200800BE4F59C
:1009D00046F547C285C296C200E4FBFA7D0A7F0253
:0509E00012012080C29D
:020ACD00C184E2
:10095A00EF6002D20430042D3080093081063082E3
:10096A00032083217F647E00120B4FC20420800380
:10097A007F01222081037F02222082037F0322201B
:10098A0083117F042230800B308108308205308346
:05099A0002D2047F0001
:01099F002235
:10000E00EFD3940540037FFF22740F2F2FF8E620C5
:10001E00E5F4C2AFE64430F6D2AFAE0CEEC39F505D
:10002E00210E741A2EF8E6F908E618BE050274FFC2
:10003E00FDED69600909E71919F7090980F316162C
:10004E0080DAEED39F400405810581EED39F4022D6
:10005E00741A2EF808E6F9EEB50C02A981180606F8
:10006E00E6FDED6960091919E70909F71980F31E14
:10007E0080D9EF241AF8E604F8EF2F04900B999329
:09008E00F608EF2F93F67F002223
:10009700EFD3940540037FFF22EF23240FF8E630C8
:1000A700E5F4C2AFE6548CF6D2AFE50CB5070A7497
:1000B7001A2FF8E6F5810201FA502E741B2FF8E685
:1000C700BF050274FFFD18E6F9741A2FF8FBE6FC6A
:1000D700E96C6008A805E7F61D1980F4A803A605D2
:1000E7001FE50CB507E37F0022741B2FF8E6FD1808
:1000F70086010F741A2FF8A601088604E50CB507C8
:1001070002AC81ED6C60080D09A805E6F780F4E5FF
:090117000CB507DE89817F00228E
:100120008FF0E4FFFEE50C23240EF8C2A930F70D92
:100130007F08E6600B2DF660325030800730F10604
:10014000EDF660277E020830F010C2AFE610E7251A
:100150000E30E20CD2AF7F048014C2AFE610E71578
:1001600054EC4EF6D2AFD2A90201FA7F0808EF4450
:0F01700083F4C2AF56C6D2AFD2A954804FFF223C
:03000B000201846B
:10017F00C2AF80FE3212018385D00B75D008AAE082
:10018F00C28CE58A24F7F58AE58C34D8F58CD28CAD
:10019F00EC241BF8E6BC050274FFC39581B4140070
:1001AF0040CE7906780E16E608700BC2AFE630E146
:1001BF00034418F6D2AF08D9EDEA8BD030050122EF
:1001CF00D50DFCC0E0C0D0C0F0C083C082C000C05D
:1001DF0001C002C003C004C005C006C007E50C2360
:1001EF00240FF87440C2AF46F6D2AFD205E50CFF2C
:1001FF0023240FF80F0808BF06047F00780FE6309E
:10020F00E4F200E50CC39F5020050C741A250CF87E
:10021F00E6FDA68108E6AE0CBE050274FFCDF8E838
:10022F006D60E008E6C0E080F6E50CD39F4027E55F
:10023F000C241BF8E6AE0CBE050274FFFD18E6CDCC
:10024F00F8E5816D6006D0E0F61880F5E50C241A0C
:10025F00C8F6150C80D3750D05E50C23240FF87F18
:10026F0004C2AFE610E61E30E00310E20C7F003050
:05027F00E10730E3047B
:100284007F0854F4547CC6D2AF54804207C205227E
:10029400F6D2AFD007D006D005D004D003D002D018
:1002A40001D000D082D083D0F0D0D0D0E0C20522DB
:1002B400781AA68174056006FF0876FFDFFB7F06C7
:1002C400E4780EF608F608DFFA780F7630900B998A
:1002D400740193C0E0E493C0E0750D054389017592
:0D02E4008AF0758CD8D28CD2AFD2A9220539
:0300000002084BA8
:0C084B00787FE4F6D8FD75815F0208920A
:1002F100BB010689828A83E0225002E722BBFE020B
:09030100E32289828A83E493223D
:10030A00BB010CE58229F582E5833AF583E02250A8
:10031A0006E92582F8E622BBFE06E92582F8E222F2
:0D032A00E58229F582E5833AF583E493220C
:10033700F8BB010DE58229F582E5833AF583E8F0FC
:10034700225006E92582C8F622BBFE05E92582C8A8
:02035700F22290
:10035900BC000BBE0029EF8DF084FFADF022E4CC88
:10036900F875F008EF2FFFEE33FEEC33FCEE9DEC51
:10037900984005FCEE9DFE0FD5F0E9E4CEFD22ED97
:10038900F8F5F0EE8420D21CFEADF075F008EF2FE1
:10039900FFED33FD4007985006D5F0F222C398FDD2
:0503A9000FD5F0EA226F
:1003AE00E88FF0A4CC8BF0A42CFCE98EF0A42CFCEE
:1003BE008AF0EDA42CFCEA8EF0A4CDA8F08BF0A46C
:1003CE002DCC3825F0FDE98FF0A42CCD35F0FCEBCB
:1003DE008EF0A4FEA9F0EB8FF0A4CFC5F02ECD3990
:0F03EE00FEE43CFCEAA42DCE35F0FDE43CFC22FD
:1009E500C2D5E830E70FB2D5E4C39BFBE49AFAE43D
:1009F50099F9E498F8EC30E717B2D5120A1B1204FE
:100A050039E4C39BFBE49AFAE499F9E498F8800386
:100A150012043930D50DE4C39FFFE49EFEE49DFD2D
:040A2500E49CFC222F
:100857000202B4E493A3F8E493A34003F68001F201
:1008670008DFF48029E493A3F85407240CC8C333A2
:10087700C4540F4420C8834004F456800146F6DF71
:10088700E4800B0102040810204080900AADE47E4A
:10089700019360BCA3FF543F30E509541FFEE49366
:1008A700A360010ECF54C025E060A840B8E493A32D
:1008B700FAE493A3F8E493A3C8C582C8CAC583CA58
:1008C700F0A3C8C582C8CAC583CADFE9DEE780BE10
:010ACF000026
:1003FD0075F008758200EF2FFFEE33FECD33CDCCB7
:10040D0033CCC58233C5829BED9AEC99E582984039
:10041D000CF582EE9BFEED9AFDEC99FC0FD5F0D616
:10042D00E4CEFBE4CDFAE4CCF9A88222B800C1B940
:10043D000059BA002DEC8BF084CFCECDFCE5F0CB7E
:10044D00F97818EF2FFFEE33FEED33FDEC33FCEBB7
:10045D0033FB10D703994004EB99FB0FD8E5E4F972
:10046D00FA227818EF2FFFEE33FEED33FDEC33FC5F
:10047D00C933C910D7059BE99A4007EC9BFCE99A53
:10048D00F90FD8E0E4C9FAE4CCFB2275F010EF2F98
:10049D00FFEE33FEED33FDCC33CCC833C810D70798
:1004AD009BEC9AE899400AED9BFDEC9AFCE899F8D3
:0E04BD000FD5F0DAE4CDFBE4CCFAE4C8F92266
:00000001FF
